:10000000003002005110000091070000930700002B
:100010009507000097070000990700000000000006
:100020000000000000000000000000009B0700002E
:100030009D070000000000009F070000A1070000CE
:10004000A5070000A5100000A7100000A9100000DF
:10005000AB100000AD100000AF100000B1100000A8
:10006000B3100000B5100000B7100000B910000078
:10007000BB100000BD100000BF100000C110000048
:10008000C3100000C51000000348044B834202D097
:10009000034B03B1184770476C0002006C0002006C
:1000A00000000000054806490B1AD90F01EBA30117
:1000B000491002D0034B03B1184770476C0002008F
:1000C0006C0002000000000010B5064C237843B914
:1000D000FFF7DAFF044B13B10448AFF300800123AC
:1000E000237010BD6C00020000000000F42300002B
:1000F00008B5044B1BB104490448AFF30080BDE8C8
:100100000840CFE70000000070000200F423000068
:10011000F8B5044600F110054FF4A47200212846FA
:1001200001F0C2F80E4F07F1300C3E460FCE2860AA
:100130006960AA60EB60374610356645F5D1094D18
:100140000FCD20646164A264E3640FCD2065616516
:10015000A265E36542F64C23A4F85431F8BD00BF14
:100160007420000054200000024B01221A6000207D
:10017000704700BFB8000330024A136843F0010320
:1001800013607047BC00033030B4094D2C68240C58
:10019000240404432C60286880B240EA01402860AF
:1001A00004490B681B0C1B0413430B6030BC7047E5
:1001B000180103301C010330024B1860043319602E
:1001C000704700BF10010330044B1B6813F0804FD1
:1001D00001D1002070470120704700BF3C00033070
:1001E00038B310B50446FFF7EFFF28B320460023CD
:1001F0000B2B06D850F82310124A42F82310013373
:10020000F6E704F130000023072B06D850F823103E
:100210000D4A42F823100133F6E7B4F844210B4BA2
:100220001A60A3F5267301221A60FFF7CDFF30B9DB
:1002300010BD4FF4807070474FF40070F8E740F243
:100240000120F5E700020330300203304803033099
:1002500010B50446A1B94FF020400021FFF7ACFFD4
:100260004FF6FF7211460120FFF78EFF04F11000D8
:10027000FFF7B6FF044630B9FFF776FF204610BD02
:10028000FFF77AFFE7E70146014800F017F8F5E7C6
:100290003820000001600368934208D04FF080428C
:1002A00001201060044B1B6803441360704700205A
:1002B0004FF0804318607047040000400FB430B521
:1002C00083B006AB53F8042B0193134C80212046D6
:1002D00001F000F920460A2101F036F8044668B121
:1002E000651C204601F094F8421C2146284600F087
:1002F00075FF20460D2300F8023BECE7064C204634
:1003000001F086F8C2B22146044800F083F803B039
:10031000BDE8304004B07047880002002028020089
:100320004FF4E13343600F2303720023437283725F
:10033000C3720373437301238373704708B5416825
:10034000037A03FB01F20E49B1FBF2F2190441EA10
:100350000251437A41EA0331837A41EAC321C37AE5
:1003600041EA4311037B41EA0311427B41EA8201E6
:10037000827B114300680A460830FFF78BFF08BDF7
:10038000005A620238B5044600258574C574FFF72B
:10039000D5FF2574A574E5742268536843F480730F
:1003A00053602268536823F4807353602268536853
:1003B00043F4007353602268536823F4007353605E
:1003C0002268536843F4806353602268536823F4BF
:1003D000806353602268536843F40063536022686B
:1003E000536823F400635360236840F2FF121A61DC
:1003F00023681D612268536843F00103536022683B
:10040000536823F0010353602268536843F00203EA
:10041000536038BD30B400238374847C94420AD284
:1004200005686B691B0A13F0180FF6D1631C8374FF
:100430000B5D2B60F1E703689A6912F4807FFAD0B4
:100440001A6942F480721A61036800221A6130BC92
:100450007047026853691B0A13F0180F01D10B781B
:10046000136003689A6912F4807FFAD01A6942F423
:1004700080721A61036800221A61704710B409E0A3
:10048000DB690B70002010BC704703685A6912F0DA
:100490001F0FF5D103689C691A6942F0C0021A6106
:1004A000036800221A61A3B214F0400F01D00122A8
:1004B000027413F0800F01D002230374037C002B1D
:1004C000E3D0837A012BE0D0002303748374C374D8
:1004D0000468626842F4807262600468626822F4B0
:1004E000807262600468626842F40072626004684C
:1004F000626822F4007262600468626842F480629A
:1005000062600468626822F4806262600468626803
:1005100042F4006262600068426822F40062426055
:100520000B700120AFE77047704770477047704706
:10053000704770477047704738B5044603689D6937
:10054000DB689BB21D4015F4807F5CD115F0400F35
:100550000FD001232374A37A012B5FD12046FFF72C
:10056000E3FF2268136943F040031361236800220C
:100570001A6115F0800F0FD002232374A37A012B88
:100580007ED12046FFF7D1FF2268136943F0800334
:100590001361236800221A6115F0200F40F0A28039
:1005A00015F0100F40F0AA8015F0010F40F0B28056
:1005B00015F0020F40F0BA8015F0040F14D0E27C61
:1005C000237E9A42C0F0BE802268D36823F00C03D9
:1005D000D3602046FFF7AFFF2268136943F004039E
:1005E0001361236800221A6115F0080F00F0CF8014
:1005F000E27C237E9A42C0F0BA802268D36823F05E
:100600000C03D360B8E0FFF78EFF2268136943F450
:1006100080731361236800221A6197E72268D36808
:1006200023F0CC03D36000232374A374E374226803
:10063000536843F4807353602268536823F48073D3
:1006400053602268536843F4007353602268536810
:1006500023F4007353602268536843F4806353604B
:100660002268536823F4806353602268536843F41C
:10067000006353602268536823F4006353606DE79E
:100680002268D36823F0CC03D36000232374A374BF
:10069000E3742268536843F480735360226853689C
:1006A00023F4807353602268536843F400735360EB
:1006B0002268536823F4007353602268536843F43C
:1006C000806353602268536823F480635360226818
:1006D000536843F4006353602268536823F4006353
:1006E00053604EE72046FFF721FF2268136943F06D
:1006F00020031361236800221A6151E72046FFF7A7
:1007000016FF2268136943F0100313612368002267
:100710001A6149E72046FFF70CFF2268136943F08E
:1007200001031361236800221A6141E72046FFF7A5
:10073000FFFE2268136943F002031361236800225D
:100740001A6139E723685A6912F01F0F3FF441AF6D
:10075000D9696269E37C581CE07422F81310F1E750
:10076000D9696269E37C581CE07422F8131023688D
:100770005A6912F01F0FF3D12046FFF7DBFE226803
:10078000136943F008031361236800221A6138BD1E
:100790007047FEE7FEE7FEE7FEE7704770477047E9
:1007A0007047000008B5044B0122C3F880210348BC
:1007B000FFF7C2FE08BD00BF00E100E020280200F4
:1007C00030B583B0194B1C6838B30D46034609B1E8
:1007D00000220A605A68A24222D3186818B3032C78
:1007E0000AD9134B1B6840F8043B043C002DF6D09B
:1007F0002B6804332B60F2E714B9002003B030BD3E
:100800000B4B1B680193224601A900F071FC15B146
:100810002B681C442C600020F0E74FF48070EDE75B
:100820004FF48070EAE74FF48070E7E70C00023085
:1008300014000230D8B14268E2B10168E1B1042A83
:1008400005D951F8040B0E4B1860043AF7E70AB9C2
:100850000020704710B582B00024019401A800F078
:1008600047FC019A064B1A60204602B010BD4FF4B7
:1008700080707047002070474FF48070704700BF51
:100880001000023021B308B5164B1B6803F00F03AC
:10089000032B0AD0022B0ED0EBB1FFF791FF124BC6
:1008A00000221A604FF47A730AE00F4B00221A609C
:1008B00040F203300BE000200B4B186007E0013BD7
:1008C000002BFCD1074B1B6813F0C00F06D108BDED
:1008D00040F2011070474FF44170F8E740F20530E4
:1008E000F5E700BF1C00023018000230B1F5003FF0
:1008F0000AD8084B1B6813F0010F08D1064B18608B
:1009000004331960002070474FF4807070474FF433
:1009100040707047000002300800023008B5FFF751
:1009200089FF08BD034B186810F00F0018BF0120A5
:10093000704700BF1C0002300F4B1B68ABB100B505
:1009400085B0FFF7EFFF98B10C4B02AA93E80300C4
:1009500082E80300002119605960019101A9104645
:10096000FFF790FF05B05DF804FB40F201307047DF
:100970004FF44070F6E700BF180002300801020093
:1009800010B50B4648B10D4C03C884E803000C4A6F
:10099000012111604BB100200EE0084A00211160D6
:1009A0005160F4E7013B002BFCD1FFF7BBFF08B916
:1009B0000A23F8E7FFF7C0FF10BD00BF08010200DF
:1009C0001800023070B50C4615461E464968FFF700
:1009D0008DFF034608B1184670BD2046FFF79EFF05
:1009E00003460028F7D131462846FFF7C9FF0346E2
:1009F000F1E798B110B584B00B4642688AB1C1687E
:100A000091B10292826803920091026901926A4652
:100A100002A90068FFF7D6FF04B010BD4FF4807044
:100A200070474FF48070F7E74FF48070F4E7036885
:100A3000B3F5E02F05D24368B3F5E02F03D20020D1
:100A400070470120704701207047000008B572B65A
:100A5000034A9060026882F3088843689847FEE77B
:100A600000ED00E0F8B5074600E0EB693D686E690F
:100A700016F00F06F9D103E0EB69DBB2AA2B0DD01B
:100A800033466C6914F00F0FF6D10133274CA342A3
:100A9000F7D92748FFF712FC0020F8BD33466C69F0
:100AA00014F00F0F08D10133204CA342F7D921488D
:100AB000FFF704FC0020F0E7EB69DBB2552BDFD138
:100AC0003346686910F00F0F08D10133174883428D
:100AD000F7D91948FFF7F2FB0020DEE7EC69E4B232
:100AE0003346686910F00F0F08D101330F48834275
:100AF000F7D91248FFF7E2FB0020CEE7E869C0B261
:100B000040EA042090420DD301460D48FFF7D6FB82
:100B10000020C2E73B685A6912F00F0FFAD0DB6978
:100B20008B550136B042F5D8B7E700BF80969800E4
:100B3000A4200000C8200000EC20000014210000C8
:100B40003C210000F0B407460026304609E0573D3E
:100B5000EDB21AE0573CE4B244EA051414540236EC
:100B600001308E421FDA98421DDABD5D741C3C5D77
:100B7000A5F1410C5FFA8CFCBCF1050F01D82035C2
:100B8000EDB2392DE3D8303DEDB2A4F1410C5FFA5E
:100B90008CFCBCF1050F01D82034E4B2392CD9D833
:100BA000303CE4B2D8E7F0BC70470000F0B5E7B0E5
:100BB000002465945D945E945F9460946194629463
:100BC00063946494AB4DAC4B2B600123AB7228460D
:100BD000FFF7A6FB2846FFF7D5FB2B68DA68DC6039
:100BE00040F2FF121A611C61A44D2846FFF766FB14
:100BF000A348FFF763FB2846FFF760FBA14AA24921
:100C0000A248FFF75BFB4FF4AC72214606A800F048
:100C10004BFB06A8FFF77CFA214606A8FFF718FB56
:100C20000346D4229A499B48FFF748FB9A48FFF7AE
:100C300045FB0194029403940494059405E09DF807
:100C400074318DF87331312B18D0202200215DA82A
:100C500000F02AFB00241E2CF1D85DAB1919854841
:100C6000FFF70CFC0028EAD166AB234413F8243CC0
:100C70000D2BE4D00A2BE2D00134ECE7874B019333
:100C800065AB029304230393854B04934FF4807365
:100C9000059301240AE0002101A8FFF7AAFE0446FB
:100CA0000346F5227A497F48FFF708FB002CF2D172
:100CB0007D4B1E687D48FFF701FB254605E0049B40
:100CC000595D7B48FFF7FAFA0135B542F7D3794809
:100CD000FFF7F4FA202200215DA800F0E5FA00E019
:100CE00001341E2C0DD85DAB19196248FFF7C6FB05
:100CF00038B966AB234413F8243C0D2B01D00A2BE2
:100D0000EED19DF874318DF87331322B40F078813B
:100D1000694B019365AB029304230393604B0493E7
:100D20004FF48073059301240BE0002101A8FFF725
:100D300060FE044603464FF48B7255495948FFF74D
:100D4000BDFA002CF1D15D4B019365AB02930423F6
:100D500003935B4B04934FF41853059301258DB116
:100D6000002101A8FFF745FE0546034640F229127F
:100D700047494C48FFF7A2FA002DF0D05148FFF741
:100D80009DFAECE7484B1E684F48FFF797FA2C4650
:100D900005E0049B195D4648FFF790FA0134B44220
:100DA000F7D34448FFF78AFA2E4608E09DF87431DD
:100DB0008DF87331342B1BD0002E00F0BF80202221
:100DC00000215DA800F070FA2C461E2CEED85DAB19
:100DD00019192848FFF752FB0028E7D166AB2344D6
:100DE00013F8243C0D2BE1D00A2BDFD00134ECE7C3
:100DF0003648FFF763FA3648FFF760FA4FF480622F
:100E00002F491C48FFF72EFE07460028D4D0314C4E
:100E1000A4F5806602463146204600F069F92E4866
:100E2000FFF74CFA4FF4806304F500623946204620
:100E3000FFF788FE064601462848FFF73FFA284894
:100E4000FFF73CFA002400E00134B4424CDA254BB1
:100E5000195D1748FFF732FA624204F00F0302F0FF
:100E60000F0258BF53420F2BEED11248FFF726FA5C
:100E7000EAE700BF202802000010004068210000BF
:100E800090210000B8210000C4210000D021000002
:100E9000AC230000E82100000C220000F9FFC04450
:100EA00010270200182200000C0002303C22000033
:100EB00050220000A8230000FAFFC044FBFFC044FA
:100EC0001001020078220000942200009C22000001
:100ED000CC22000010050200D422000004230000F0
:100EE0002C230000100D02004948FFF7E7F9494B99
:100EF0000193494B02930396484B04934FF480733C
:100F000005930126002E3FF457AF454C4FF4B172C4
:100F100021464448FFF7D2F9002101A8FFF769FDF7
:100F2000064603464FF4B27221463F48FFF7C6F922
:100F3000002EE7D03D48FFF7C1F9E3E73C4B0193B2
:100F400065AB0293042303933A4B04934FF4185375
:100F5000059340F2771232493248FFF7AFF9012486
:100F60008CB1002101A8FFF744FD0446034640F27E
:100F70007B122B492C48FFF7A1F9002CF0D02E480A
:100F8000FFF79CF9ECE72D48FFF798F9254600E0BC
:100F90000135059AAA420CD9049B595D2848FFF7F0
:100FA0008DF905F00F030F2BF2D11948FFF786F9E1
:100FB000EEE7049906E0A30003F5802351F824002E
:100FC00018600134B4EB920FF5D34FF48020FFF793
:100FD0002EFD58B11B4C0DF273112046FFF74EFA4F
:100FE0000DF273112046FFF734FAF3E740F28B124B
:100FF0000B491548FFF762F94FF48020FFF726FDF3
:101000001248FFF75BF94FF0FF3067B0F0BD00BF4B
:10101000A8230000FCFFC044100D020010270200AE
:10102000AC230000442300001822000058230000D5
:101030004D3C2B1A10010200782200007C23000096
:101040008C23000020280200942300005822000076
:101050000A490B4A0B4B9B1A03DD043BC858D0507E
:10106000FBDC0949094A00209142BCBF41F8040B4E
:10107000FAE7FFF79BFD00F027F80000F8230000D7
:10108000000002006C0002006C0002004028020018
:10109000FEE7FEE7FEE7FEE7FEE7FEE7FEE7FEE728
:1010A000FEE7FEE7FEE7FEE7FEE7FEE7FEE7FEE718
:1010B000FEE7FEE7FEE7FEE7FEE7FEE7FEE7FEE708
:1010C000FEE7FEE7FEE700BF08B5074B044613B195
:1010D000002100F00DFA054B1868836A03B19847A8
:1010E000204600F09BFF00BFF1140000B423000075
:1010F000844641EA000313F0030349D1403A23D365
:101100000B6803604B6843608B688360CB68C36087
:101110000B6903614B6943618B698361CB69C3616F
:101120000B6A03624B6A43628B6A8362CB6AC36257
:101130000B6B03634B6B43638B6B8363CB6BC3633F
:1011400040304031403ADBD230320BD30B68036081
:101150004B6843608B688360CB68C360103010318C
:10116000103AF3D20C3205D351F8043B40F8043B5B
:10117000043AF9D2043208D0D2071CBF11F8013B5F
:1011800000F8013B01D30B8803806046704700BF25
:10119000082A13D38B07B1D010F00303AED0C3F1EC
:1011A0000403D21ADB071CBF11F8013B00F8013B16
:1011B000A4D331F8023B20F8023B9FE7043AD9D38D
:1011C000013A11F8013B00F8013BF9D20B780370AA
:1011D0004B7843708B788370604670478842F0B4D8
:1011E0000DD98B1883420AD9841832B1224613F8DC
:1011F000014D994202F8014DF9D1F0BC70470F2A18
:101200000ED80346541E002AF7D001340C44013B8B
:1012100011F8012BA14203F8012FF9D1F0BC70475E
:1012200040EA01039B073AD1A2F110073F0901F1FF
:10123000200606EB071601F1100300F1100453F825
:10124000105C103344F8105C53F81C5C103444F804
:101250001C5C53F8185C44F8185C53F8145CB342F7
:1012600044F8145CEBD17B1C1B0112F00C0F1944E9
:1012700002F00F05034415D00E46043DAD0803EB04
:10128000850C1C1F56F8047B44F8047F6445F9D193
:101290000135AD002B44294402F00302B2E7541E8D
:1012A0000346B2E72A46ADE7F0B4860746D0541E9F
:1012B000002A3CD0CAB2034602E014F1FF3436D310
:1012C00003F8012B9D07F8D1032C29D9CDB245EAAB
:1012D00005250F2C45EA054533D9A4F1100636093A
:1012E00003F1200707EB061703F1100242E904554A
:1012F00042E902551032BA42F8D1721C14F00C0FB8
:1013000003EB021204F00F0613D0331F23F0030384
:101310000433134442F8045B9342FBD106F0030408
:101320002CB1C9B21C4403F8011B9C42FBD1F0BC98
:10133000704734461346002CF3D1F8E714460346B1
:10134000C2E71A462646E0E7C9B200F003030029C7
:1013500035D07BB10378002B57D0994252D0431C33
:1013600005E013F8012B002A4DD08A424AD09A0793
:101370001846F6D170B441EA0126046846EA0646EA
:1013800001E050F8044F86EA0405A5F10132A4F10A
:10139000013322EA050223EA0403134313F0803FDA
:1013A000EFD0037843B1994202D106E08B4204D0DA
:1013B00010F8013F002BF9D1184670BC70474BB1B3
:1013C0000378FBB1431C02E002780133D2B19907E4
:1013D0001846F9D10268A2F1013323EA020313F09F
:1013E000803F08D150F8042FA2F1013323EA020311
:1013F00013F0803FF6D0037823B110F8013F002BA3
:10140000FBD170477047104670471846704700BFC1
:1014100020F0030110F00300C0F1000051F8043B7C
:1014200000F1040C4FEACC0C6FF000021CBF22FA52
:101430000CF213434FF0010C4CEA0C2C4CEA0C4C10
:10144000A3EB0C0222EA030212EACC1204BF51F809
:10145000043B0430F4D0C2F1000102EA0102B2FA06
:1014600082F2C2F11F0200EBD200704770B5141E69
:101470009AB0054629DB1A464FF402730091049195
:10148000ADF80C304FF6FF7611D0013C1E9B69463B
:1014900002940594ADF80E6000F056F9421C01DA92
:1014A0008B232B600022009B1A701AB070BD1E9B0C
:1014B000694602940594ADF80E6000F045F9431CAE
:1014C00001DA8B232B601AB070BD8B234FF0FF30F5
:1014D0002B60F8E710B5054C82B0009313460A461E
:1014E00001462068FFF7C2FF02B010BD00000200F5
:1014F0002DE9F04F0F464FF0010ADFF88C8083B0E2
:10150000D8F8005001908DB16C68D5F88860013C26
:101510000CD405F1080B67B12EB106F1800353F826
:101520002430BB4205D014F1FF34F4D203B0BDE83F
:10153000F08F6B685BF82420013BA34216BF0023A9
:101540006C604BF82430002AEDD0D5F80490B6B189
:10155000D6F800110AFA04F30B4210D0D6F80401B1
:1015600056F8241003420CD1019890476B68D8F8C4
:1015700000204B4501D1AA42D5D01546C3E790477C
:10158000F4E708469047F1E7102802002DE9F047FC
:101590008E6880469E420C461D461746086836D81F
:1015A000B1F80CC01CF4906F0DD135462A4639466F
:1015B000FFF714FE0020A2682368961B2B44A66048
:1015C0002360BDE8F087D1E9041606EB460606EB7A
:1015D000D676A0EB0109013376104B44B342324674
:1015E00084BF1E4632461CF4806F12D0114640461E
:1015F00000F05EFC824600B34A462169FFF778FDA1
:10160000A38923F4906343F08003A38106E01E4680
:10161000CCE7404600F0B0FC824650B1A6EB09038F
:101620000AEB09006661C4F810A02060A3602E4692
:10163000BCE72169404600F0E7FB0C23C8F8003006
:10164000A3894FF0FF3043F04003A381B9E700BF07
:101650002DE9F04F936883B09046002B6DD017684A
:1016600082460C46086808378D6843E0A38913F466
:10167000906F2ED0D4E9041505EB4505A0EB010BC6
:1016800005EBD5750BEB06006D100130A8422A461C
:1016900084BF05462A465B0536D51146504600F004
:1016A00007FC00283AD05A4621690190FFF720FD37
:1016B000A289019B22F4906242F08002A281A5EBF4
:1016C0000B0203EB0B006561B346354623612060D6
:1016D000A2605A464946FFF781FDD8F80830A26853
:1016E0002068551B58449E1BA5602060C8F8086000
:1016F0001EB3083757E90296AB46002EF9D0AE422A
:10170000B4D23546B346E4E7504600F035FC034614
:101710000028D4D12169504600F076FB0C2300222A
:101720004FF0FF30CAF80030A38943F04003A38193
:10173000C8E9012203B0BDE8F08F0020C8F804001A
:1017400003B0BDE8F08F00BF2DE9F04F8B468989CB
:101750009FB00C069046029004D5DBF81020002ABA
:1017600000F00D81002020213022059398F80030F0
:1017700001270B908DF831108C4E8DF83220002B04
:1017800000F08680252B00F0F880454603E0252BED
:1017900000F0888025466B786C1C002BF7D1B4EBE9
:1017A000080A75D04246534659460298FFF7EEFEA6
:1017B00001306DD00B9B6A7853440B93002A67D09D
:1017C00000234FF0FF3201340693CDE908338DF842
:1017D0005B301C93079206E02C46069B801B07FAA1
:1017E00000F0184306902546052215F8011B3046E7
:1017F00000F0C4FAAA460028EED1069BD90644BFE1
:1018000020228DF85B201A0748BF2B22217848BF81
:101810008DF85B202A2949D1059A116804320029E4
:1018200005927FDB09916178A51C2E2957D0604C69
:101830000322204600F0A2FA002869D04022069B2D
:10184000001B02FA00F00343069305F101082B7810
:101850000622194657488DF8303000F08FFA0028DC
:1018600066D0554B002B56D005AB00935A46534BD0
:1018700006A90298AFF300808146B9F1FF3F07D077
:101880000B9B4B440B9398F80030002B7FF47AAFFE
:10189000BBF80C305B064CBF4FF0FF300B981FB00D
:1018A000BDE8F08FB4EB080A8AD07BE7A1F13002E3
:1018B000092A88BFA246B8D8099B01E02C46013509
:1018C000297803EB830302EB4303A1F13002092AD9
:1018D000AA46F3D92E2904F102050993A7D19AF853
:1018E00001102A292ED1059B0AF102001A6804333F
:1018F000002A079205939AF802100AF1030537DBD4
:101900002B4C82460322204600F038FA002895D15D
:10191000A84655469BE7059B073323F0070308338A
:101920000593ADE7494243F00203099106937AE734
:1019300005AB00935A46214B06A9029800F0D4F853
:1019400081469AE70023A1F13002092A079301D9C1
:1019500023E05546697803EB830302EB4303A1F1CF
:101960003002092A05F1010AF3D9023507935EE72F
:101970004FF0FF338246079359E7444620E7402162
:10198000039300F095FA039BCBF80000CBF810000E
:1019900030B14022CBF81420E4E6AA46013546E7F0
:1019A0000C23029A4FF0FF30136078E7B823000051
:1019B000C0230000C4230000000000008D150000BB
:1019C0002DE9F0470C460969A56891468D42B8BFDC
:1019D0000D46156094F8431006461F46DDF820803A
:1019E00011B16A1CC9F80020236899065CD5D9F8A2
:1019F00000200232C9F80020236813F0060F1946B0
:101A00001DD1E1688A1A002AD8BF194617DD0025C2
:101A100004F1190A05E0E368D9F800209B1AAB42EB
:101A20000CDD0123524639463046C047013005F1EE
:101A30000105F0D14FF0FF30BDE8F087216894F840
:101A40004330003318BF01238A060AD53021E2183B
:101A500082F8431094F845105A1C224482F843102F
:101A6000023304F1430239463046C0470130E1D029
:101A70002368A26803F00603042B21691DD08A4263
:101A800026DD4FF00009521A914400251A3401E076
:101A90004D451DDA0123224639463046C047013004
:101AA00005F10105F4D1C5E713F0060F13D094F842
:101AB0004330003318BF0123D3E7D9F80000E368AF
:101AC0008A42A3EB000323EAE379DCDC002BDCDCB5
:101AD0000020BDE8F087E168D9F800208A1A002AC2
:101AE000D8BF194693DCAAE72DE9F0430C46097EDE
:101AF00085B06E2906461746984604F1430C0C98AB
:101B00006DD039D9732900F0F48044D9752900F0DB
:101B10000281782940F00F8178232268DFF854E2AF
:101B200084F845300168150651F8043B016040F126
:101B3000A180D10744BF42F020022260002B00F0B8
:101B400093801022002184F8431060680028A06070
:101B5000C0F2C680216821F004012160002B40F012
:101B6000A280002840F0BE806546082A00F0AB80C5
:101B7000ACEB0503236141E0632900F0E3801AD850
:101B8000002938D0582940F0D68084F845102268C2
:101B9000DFF8E4E1C6E76F2900F0BD80702940F06E
:101BA000CA8078232268DFF8CCE142F0200222606C
:101BB00084F84530B6E7642902D0692940F0BB803B
:101BC00022680368110603F1040557D519680560FA
:101BD0000B46002959DB0A22DFF89CE1B5E70368D0
:101BE00022681D1D6169056015061B6802D4500638
:101BF00000F1BB801960002365462361CDF80080A9
:101C00003B4603AA21463046FFF7DAFE013020D0DA
:101C10002A46236939463046C047013019D0226828
:101C200003989207E36819D51A1A002A16DD0025D1
:101C300004F1190904E0E36803981A1AAA420DDDB9
:101C400001234A4639463046C047013005F10105B7
:101C5000F1D14FF0FF3005B0BDE8F0839842B8BF36
:101C6000184605B0BDE8F0832168102221F020015C
:101C7000216067E7500648BF9BB25AE75106A5D5D9
:101C8000B3F9003005601946A3E72D2061685B4277
:101C9000002984F84300A16002DB22F004022260E4
:101CA0000A22DFF8D4E0654600E00B46B3FBF2F110
:101CB00002FB11301EF80000934205F8010DF4D22A
:101CC000082A7FF455AF2368DB077FF551AF6268C0
:101CD00023699A423FF74CAF3023013D2B7047E711
:101CE000002BE0D19EF8003004F1420584F8423028
:101CF0003BE703686268191D01601D6800212846E2
:101D000000F03CF8002832D0401B606020610023C6
:101D100084F8433072E72268036812F0800F03F101
:101D200004051AD01B6805606F290CBF08220A221F
:101D3000DFF844E006E7012384F84210236104F150
:101D40004205E4E70122036804F14205191D1B68FE
:101D5000016084F842302261D9E712F0400F0DBFD4
:101D60001B6805601B880560DEE7198043E7606833
:101D7000CCE700BFE0230000CC230000830770B451
:101D8000CDB23DD0541E0AB30378AB421FD0431CE2
:101D900005E014F1FF3419D30278AA4217D013F0EA
:101DA000030F184603F10103F3D1032C11D84CB3F0
:101DB0000378AB420BD00444431C02E00278AA42F1
:101DC00005D09C42184603F10103F7D1002070BCF6
:101DD000704702460E02B6B22E4346EA0646136824
:101DE00010467340A3F1013121EA030313F0803F51
:101DF00002F10402DCD1043C032C1046EFD8D6E7F4
:101E00001446D2E72046E2E700293AD038B551F827
:101E1000043C0C1F002BB8BFE418054600F0E4F8A2
:101E2000224B1A682AB1A2420DD921686018824259
:101E300021D0626028461C60BDE8384000F0D6B86A
:101E4000A34203D81A465368002BF9D111685018E1
:101E5000A04217D022D821686018834203BFD3E97B
:101E600000030918C4E90013636054602846BDE804
:101E7000384000F0BBB8D2E900020144C4E90012C6
:101E8000D8E7704720680144501883421160EDD1B3
:101E9000D3E900030144C2E90013E7E70C23284615
:101EA0002B60BDE8384000F0A1B800BF1428020044
:101EB000F8B5CD1C25F0030508350C2D38BF0C25D1
:101EC000002D064633DBA94231D82A4F00F08CF8AA
:101ED0003A6852B113685B1B04D43FE023685B1B74
:101EE00029D522465468002CF8D1796800293BD0C6
:101EF0002946304600F066F8431C28D0C41C24F064
:101F00000304A04205D0211A304600F05BF80130EE
:101F10001DD02560304600F069F804F10B0020F078
:101F20000700231DC21A01D01B1AA350F8BD0C22B2
:101F300000203260F8BD0B2B05D8A242636811D097
:101F40005360E7E7144623601C442560E2E70C2356
:101F50003046336000F04AF80020F8BD0B2BF1D872
:101F6000144653683B60D5E7304600F02BF87860A4
:101F7000BEE700BF1428020009B3F8B51446CAB181
:101F800006460D4600F034F8A04202D32F463846EC
:101F9000F8BD21463046FFF78BFF07460028F6D0F4
:101FA00022462946FFF7A4F830462946FFF72CFFC2
:101FB0003846F8BD2746FFF727FF3846F8BD1146DB
:101FC000FFF776BF38B50023064C05460846236068
:101FD00000F016F8431C00D038BD2368002BFBD05E
:101FE0002B6038BD3C280200704700BF704700BF1F
:101FF00051F8043C181F002BBCBF0B58C018704789
:10200000044A05491368002B08BF0B4618441060AA
:10201000184670471C28020040280200FEE700BF57
:10202000F8B500BFF8BC08BC9E467047F8B500BFC5
:10203000F8BC08BC9E4670474661696C65642074B4
:102040006F20696E69742066757365733A20256424
:102050000A00000083828180878685848B8A898834
:102060008F8E8D8C93929190979695949B9A999838
:102070009F9E9D9C03020100070605040B0A0908A8
:102080000F0E0D0C13121110171615141B1A191818
:102090001F1E1D1C23222120272625242B2A292808
:1020A0002F2E2D2C54494D454F555420776169747E
:1020B000696E6720666F722073796E63206279742F
:1020C0006520307841410A0054494D454F55542010
:1020D00077616974696E6720666F722073796E63C9
:1020E000206279746520307835350A0054494D45B1
:1020F0004F55542077616974696E6720666F72204E
:102100006C656E67746820686967682062797465B9
:102110000A00000054494D454F55542077616974B9
:10212000696E6720666F72206C656E677468206CDC
:102130006F7720627974650A000000004552524FA3
:10214000523A204461746120746F6F206C6F6E6727
:10215000212045787065637465642025642C206DAA
:1021600061782025640A00002D2D2D2D2D2D2D2D7B
:102170002D2D2D2D2D2D2D2D2D2D2D2D2D2D2D2D8F
:102180002D2D2D2D2D2D2D2D2D2D2D2D0A00000029
:10219000202020202020202020202020202020530C
:1021A0004F4320524F4D2E2E2E2020202020202025
:1021B000202020200A00000031373A32393A3438E2
:1021C000000000004A756C20323020323032360078
:1021D000436F6D70696C6564206F6E3A20257320C3
:1021E00061742025730A000066756E633A202573BA
:1021F0002C206C696E653A2025642C207374617400
:102200007573203D2025640A00000000536F632091
:1022100073746172740A000066756E633A202573E8
:102220002C206C696E653A2025642C2073746174CF
:102230007573203D20307825780A0000524F4D20DC
:102240004D6561737572652076616C75653A0A003B
:1022500025303278000000006D656173757265206D
:102260006661696C65642C20646F206E6F742073E6
:1022700074617274210A0000534F43204657206D49
:102280006561737572656D656E74206661696C65F4
:1022900064210A00435352203A0A000052656365E4
:1022A0006976656420636F6D6D616E6420342C20E7
:1022B00077616974696E6720666F722063657274F6
:1022C000696669636174652E2E2E0A005245414489
:1022D000590A00005265636569766564206365721A
:1022E00074696669636174652068657820737472C7
:1022F000696E67207375636365737366756C6C795B
:102300000A00000043657274696669636174652040
:1023100062696E617279206C656E6774683A202517
:10232000642062797465730A000000005265636579
:102330006976656420636572746966696361746552
:102340003A200A0066756E633A2025732C206C696A
:102350006E653A2025640A00436572746966696394
:10236000617465207472616E736D697373696F6EE9
:10237000206572726F72210A00000000736F632083
:102380006669726D776172653A0A000030782530AF
:102390003278200066756E633A2025732C206C69B4
:1023A0006E653A202564200D0A0000006D61696E9B
:1023B0000000000004000200232D302B200000004C
:1023C000686C4C0065666745464700003031323323
:1023D0003435363738394142434445460000000021
:1023E000303132333435363738396162636465668B
:0823F0000000000000000000E5
:1023F80004000200000000000000000000000000CF
:1024080000000000000000000000000000000000C4
:1024180000000000000000000000000000000000B4
:1024280000000000000000000000000000000000A4
:102438000000000000000000000000000000000094
:102448000000000000000000000000000000000084
:0C24580000000000F1000000C9000000BE
:040000030000105198
:00000001FF
