:100000000020020025060000AF050000B105000039
:10001000B3050000B5050000B705000000000000B2
:10002000000000000000000000000000B905000012
:10003000BB05000000000000BD050000BF0500007A
:10004000C1050000790600007B0600007D06000067
:100050007F06000081060000830600008506000080
:1000600087060000890600008B0600008D06000050
:100070008F06000091060000930600009506000020
:10008000970600009906000010B5054C237833B997
:10009000044B13B10448AFF300800123237010BD5B
:1000A0006C000200000000006410000008B5034B63
:1000B0001BB103490348AFF3008008BD00000000F6
:1000C000700002006410000001600368934207D0D2
:1000D0004FF08043012018605A6802441A6070474C
:1000E00000204FF0804318607047000000B591B0C9
:1000F0000A460146684600F003FB002805DC684616
:1001000000F0E0FA11B05DF804FB684600F0DAFA9E
:10011000C2B26946014800F08BF8F0E7880002009F
:100120000FB400B583B004A951F8040B0191FFF797
:10013000DDFF03B05DF804EB04B070474FF4E1332A
:1001400043600F230372002343728372C3720373ED
:10015000437301238373704708B54168037A03FB37
:1001600001F20E49B1FBF2F2190441EA0251437A5D
:1001700041EA0331837A41EAC321C37A41EA431158
:10018000037B41EA0311427B41EA8201827B1143F6
:1001900000680A460830FFF797FF08BD005A620260
:1001A00038B5044600258574C574FFF7D5FF25745E
:1001B000A574E5742268536843F480735360226821
:1001C000536823F4807353602268536843F40073C8
:1001D00053602268536823F40073536022685368A5
:1001E00043F4806353602268536823F48063536050
:1001F0002268536843F4006353602268536823F411
:1002000000635360236840F2FF121A6123681D6186
:100210002268536843F0010353602268536823F057
:10022000010353602268536843F00203536038BDF2
:1002300010B40023837490F812C094450CD2046863
:1002400063691B0A13F0180FF5D10CF101038374D5
:1002500011F80C302360EEE703689A6912F4807F8E
:10026000FAD01A6942F480721A61036800221A6196
:1002700010BC7047026853691B0A13F0180F01D1B4
:100280000B78136003689A6912F4807FFAD01A69B8
:1002900042F480721A61036800221A61704710B438
:1002A00009E0DB690B70002010BC704703685A69D5
:1002B00012F01F0FF5D103689C691A6942F0C00261
:1002C0001A61036800221A61A3B214F0400F01D032
:1002D0000122027413F0800F01D002230374037C07
:1002E000002BE3D0837A012BE0D0002303748374C6
:1002F000C3740468626842F4807262600468626871
:1003000022F4807262600468626842F40072626083
:100310000468626822F4007262600468626842F4F1
:10032000806262600468626822F4806262600468CD
:10033000626842F4006262600068426822F400620F
:1003400042600B700120AFE77047704770477047FD
:100350007047704770477047704738B50446036868
:100360009D69DB689BB21D4015F4807F44D115F078
:10037000400F0FD001232374A37A012B47D12046CD
:10038000FFF7E3FF2268136943F04003136123681A
:1003900000221A6115F0800F0FD002232374A37A74
:1003A000012B66D12046FFF7D1FF2268136943F085
:1003B00080031361236800221A6115F0200F40F0BA
:1003C0008A8015F0100F40F0928015F0010F40F078
:1003D0009A8015F0020F40F0A28015F0040F00F093
:1003E000C180E27C237E9A42C0F0AC802268D36850
:1003F00023F00C03D360AAE0FFF7A6FF226813697D
:1004000043F480731361236800221A61AFE7226806
:10041000D36823F0CC03D36000232374A374E37464
:100420002268536843F4807353602268536823F44E
:10043000807353602268536843F4007353602268EA
:10044000536823F4007353602268536843F4806355
:1004500053602268536823F48063536022685368B2
:1004600043F4006353602268536823F400635360CD
:1004700085E72268D36823F0CC03D360002323747C
:10048000A374E3742268536843F480735360226852
:10049000536823F4807353602268536843F40073F5
:1004A00053602268536823F40073536022685368D2
:1004B00043F4806353602268536823F4806353607D
:1004C0002268536843F4006353602268536823F43E
:1004D0000063536066E72046FFF739FF226813691F
:1004E00043F020031361236800221A6169E7204664
:1004F000FFF72EFF2268136943F01003136123688E
:1005000000221A6161E72046FFF724FF2268136981
:1005100043F001031361236800221A6159E7204662
:10052000FFF717FF2268136943F002031361236882
:1005300000221A6151E7D9696269E37C581CE074B2
:1005400022F8131023685A6912F01F0FF3D12046C6
:10055000FFF702FF2268136943F004031361236865
:1005600000221A6115F0080F20D0E27C237E9A4207
:100570000CD32268D36823F00C03D3600BE0D96955
:100580006269E37C581CE07422F8131023685A69EE
:1005900012F01F0FF3D12046FFF7DDFE226813692A
:1005A00043F008031361236800221A6138BD7047C5
:1005B000FEE7FEE7FEE7FEE77047704770477047CB
:1005C00008B5044B0122C3F880210348FFF7C5FE9C
:1005D00008BD00BF00E100E08800020000B583B064
:1005E0000D4C0E4B23602046FFF7A8FD2046FFF779
:1005F000D7FD0B48FFF794FD4FF08043ED221A60C2
:10060000054C0DF107012046FFF749FE0DF10701EA
:100610002046FFF72FFEF3E788000200001000409D
:10062000001000000A490B4A0B4B9B1A03DD043BE8
:10063000C858D050FBDC0949094A00209142BCBF90
:1006400041F8040BFAE7FFF7C9FF00F027F80000B4
:1006500068100000000002006C0002006C00020044
:10066000B8000200FEE7FEE7FEE7FEE7FEE7FEE772
:10067000FEE7FEE7FEE7FEE7FEE7FEE7FEE7FEE752
:10068000FEE7FEE7FEE7FEE7FEE7FEE7FEE7FEE742
:10069000FEE7FEE7FEE7FEE7FEE700BF08B5074B13
:1006A000044613B10021AFF30080054B1868836A3C
:1006B00003B19847204600F095FC00BF0000000001
:1006C0002C100000034613F8012B002AFBD1181A46
:1006D0000138704700B59BB0009104916FF0004164
:1006E0000591029105490391694600F06FF80022D7
:1006F000009B1A701BB05DF804FB00BF0802FFFFEF
:1007000013460A46014602480068FFF7E3BF00BFF0
:10071000000002002DE9F0478E6882469E420C469A
:1007200090461F4638D88A8912F4906F32D02568D7
:1007300009690133A5EB010965694B4405EB4505E2
:1007400005EBD5756D109D4238BF1D46530531D55B
:10075000294600F06FFB064650B90C234FF0FF30DE
:10076000CAF80030A38943F04003A381BDE8F087B5
:100770004A46216900F0CEFAA38923F4906343F03E
:100780008003A38126614E4426603E466561A5EB49
:100790000905A560BE4200D93E4632464146206862
:1007A00000F0C6FAA36800209B1BA36023683344B3
:1007B0002360DBE72A4600F0B1FB06460028E1D1C2
:1007C0005046216900F0CEFAC7E700002DE9F04F4E
:1007D00098468B8907461B060D4614469DB00ED5DC
:1007E0000B6963B9402100F025FB2860286120B91E
:1007F0000C233B604FF0FF30D1E040236B610023BE
:10080000099320238DF8293030234FF00109CDF8CA
:100810000C80DFF8A4818DF82A3023469A4613F81D
:10082000012B0AB1252AF9D1BAEB040B0BD05B4698
:10083000224629463846FFF76DFF013000F0AA80B6
:10084000099A5A4409929AF80030002B00F0A280CD
:1008500000234FF0FF32CDE905230AF1010A04938A
:1008600007938DF853301A935446052214F8011B50
:10087000514800F041FA049AD8B9D00644BF202369
:100880008DF85330110744BF2B238DF853309AF85D
:1008900000302A2B15D0544600204FF00A0C079A3E
:1008A000214611F8013B303B092B4ED9B0B10792DC
:1008B00014E0A0EB080309FA03F31343A2460493E0
:1008C000D2E7039B191D1B680391002BBBBF5B4242
:1008D00042F0020207930793B8BF049223782E2BAD
:1008E0000CD163782A2B35D1039B02341A1D1B6867
:1008F0000392002BB8BF4FF0FF330593DFF8BCA085
:1009000003225046217800F0F7F940B14023A0EBD4
:100910000A0003FA00F0049B01340343049314F823
:10092000011B062226488DF8281000F0E5F9002862
:1009300038D0244B1BBB039B073323F0070308333A
:100940000393099B3344099367E70C4601200CFB92
:100950000232A5E700234FF00A0C19460134059333
:10096000204610F8012B303A092A03D9002BC5D0B4
:100970000591C3E7044601230CFB0121F0E703AB1B
:1009800000932A463846104B04A9AFF30080421C5E
:100990000646D6D1AB895B063FF52CAF09981DB052
:1009A000BDE8F08F03AB00932A463846064B04A9F6
:1009B00000F07CF8EBE700BF3010000036100000BC
:1009C0003A10000000000000150700002DE9F04774
:1009D000164699468A680B6907469342B8BF134684
:1009E000336091F843200C46DDF820800AB10133D2
:1009F00033602368990642BF336802333360256849
:100A000015F0060506D104F1190AE36832689B1A4D
:100A1000AB4228DC94F84320131E226818BF012340
:100A200092062DD44946384604F14302C0470130AE
:100A300020D02368E56803F00603042B18BF0025C7
:100A400032684FF00006A36808BFAD1A226908BFDC
:100A500025EAE5759342C4BF9B1AED181A34B542D6
:100A60001AD1002008E00123524649463846C047C3
:100A7000013003D14FF0FF30BDE8F0870135C4E706
:100A80003020E11881F843005A1C94F845102244A4
:100A9000023382F84310C5E701232246494638460F
:100AA000C0470130E6D00136D9E700002DE9FF4705
:100AB0000F7E9146782F80460C469A460C9D01F198
:100AC000430207D8622F0AD8002F00F0D980582F90
:100AD00000F0A48004F1420584F842703AE0A7F1E6
:100AE0006303152BF6D801A151F823F0450B000044
:100AF000590B0000D50A0000D50A0000D50A0000F5
:100B0000D50A0000590B0000D50A0000D50A0000E4
:100B1000D50A0000D50A0000670C0000890B000010
:100B2000490C0000D50A0000D50A0000890C00001D
:100B3000D50A0000890B0000D50A0000D50A000084
:100B4000510C00002B681A1D1B682A6004F1420535
:100B500084F842300123A4E020682968060601F1E8
:100B600004030AD50E682B60002E03DA2D2376428B
:100B700084F843300A235E4819E00E6810F0400FF5
:100B80002B6018BF36B2EFE72B682068191D29606B
:100B9000010601D51E6802E04606FBD51E886F2FB0
:100BA0000CBF08230A235248002184F843106568CB
:100BB000002DA8BF2168A560A4BF21F00401216019
:100BC0000EB9002D4DD01546B6FBF3F103FB1167AE
:100BD000C75D05F8017D3746BB420E46F4D9082BA8
:100BE0000BD12368DE0708D5236961689942DEBF0F
:100BF000302305F8013C05F1FF35521B22614B46BD
:100C000021464046CDF800A003AAFFF7DFFE0130E1
:100C10004CD14FF0FF3004B0BDE8F087344881F884
:100C200045702968236851F8046B29601D0614D5A6
:100C3000DF0744BF43F0200323601EB9236823F07D
:100C4000200323601023AFE7236843F020032360D1
:100C50007823284884F84530E3E7590648BFB6B200
:100C6000E6E71546BBE72B682668181D6169286012
:100C700035061B6801D5196002E07006FBD51980A6
:100C8000002315462361BAE72B6800211A1D2A604C
:100C90001D686268284600F02FF808B1401B6060AC
:100CA00063682361002384F84330A8E72A46494655
:100CB00040462369D0470130ABD023689B0713D44B
:100CC000E068039B9842B8BF1846A4E70123324668
:100CD00049464046D04701309BD00135E36803992F
:100CE0005B1AAB42F2DCEBE7002504F11906F5E7ED
:100CF0004110000052100000034610B5C9B2024472
:100D00009342184601D1002003E0047801338C425D
:100D1000F6D110BD0A44914200F1FF3300D1704773
:100D200010B511F8014B914203F8014FF9D110BDF4
:100D3000884210B501EB020402D98442234607D849
:100D4000431EA14208D011F8012B03F8012FF8E748
:100D5000014602448A4200D110BD13F8014D02F849
:100D6000014DF7E738B50546002940D051F8043C5D
:100D70000C1F002BB8BFE41800F010F91C4A1368D0
:100D800033B9636014602846BDE8384000F00CB900
:100D9000A34208D9206821188B4201BF19685B68FB
:100DA00009182160EDE71A465B680BB1A342FAD936
:100DB00011685018A0420BD120680144501883429A
:100DC0001160E0D118685B68014411605360DAE794
:100DD00002D90C232B60D6E7206821188B4201BF73
:100DE00019685B680918216063605460CBE738BDFF
:100DF000A400020070B50E4E0C463168054611B9CC
:100E000000F0BCF830602146284600F0B7F8431CDB
:100E10000AD0C41C24F00304A04207D0211A28469B
:100E200000F0ACF8013001D14FF0FF34204670BD26
:100E3000A80002002DE9F041CD1C25F0030508357E
:100E40000C2D38BF0C25002D074601DBA94205D922
:100E50000C2300263B603046BDE8F0812E4E00F0AA
:100E60009DF833681C4634BB29463846FFF7C2FF5D
:100E7000431C04464DD134682646002E40D12368D9
:100E80003146384604EB030800F078F880453AD143
:100E9000216803356D1A25F0030508350C2D38BF80
:100EA0000C2538462946FFF7A5FF01302BD02368D3
:100EB0002B4423600EE02268521B1ED40B2A16D945
:100EC0006119A342256018BF5960636808BF31608B
:100ED00062514B60384604F10B0600F065F826F0CD
:100EE0000706231DF21AB6D09B1BA350B3E7626816
:100EF000A3420CBF32605A60ECE723466468B2E755
:100F000034467668B9E70C2338463B6000F04CF86D
:100F1000A1E72560DEE700BFA40002002DE9F04153
:100F2000804614460E4621B91146BDE8F041FFF750
:100F300081BF2AB9FFF716FF25462846BDE8F08194
:100F400000F038F88442074602D8B4EB500F12D8AC
:100F500021464046FFF76EFF05460028EDD0BC4213
:100F60002246314628BF3A46FFF7D4FE3146404676
:100F7000FFF7F8FEE1E73546DFE7000038B500236C
:100F8000054D044608462B6000F01EF8431C02D1B4
:100F90002B6803B1236038BDAC000200014800F0AB
:100FA00011B800BFB0000200014800F00CB800BF4B
:100FB000B000020051F8043C181F002BBCBF0B58B6
:100FC000C018704770477047044A05491368002BE2
:100FD00008BF0B461844106018467047B400020062
:100FE000B8000200FEE700BFF8B500BFF8BC08BCBF
:100FF0009E467047F8B500BFF8BC08BC9E467047D7
:10100000456E67696E65206973206F7065726174E3
:101010006976652C2068656C6C6F20616E64206752
:101020006F6F646279652E0D0A00000004000200F3
:10103000232D302B2000686C4C00656667454647C1
:101040000030313233343536373839414243444544
:1010500046003031323334353637383961626364B3
:081060006566000000000000BD
:101068000400020000000000000000000000000072
:101078000000000000000000000000000000000068
:101088000000000000000000000000000000000058
:101098000000000000000000000000000000000048
:1010A8000000000000000000000000000000000038
:1010B8000000000000000000000000000000000028
:0C10C80000000000AD00000089000000E6
:0400000300000625CE
:00000001FF
